:20000000483F0020596F000001CA011001CA011001CA011001CA011001CA011001CA011049
:1C00200001CA011001CA011001CA011001CA011001CA011001CA01103FCA011082
:20003C002DE9F84F2D4E89460AAF9846BC88D9F804B099F800503F88009206F10C015846C1
:20005C002A4608F09FFA4FF0000A30B9042F3ADCC7F10400A0422CDC0CE006F11C015846C4
:20007C002A4608F08FFA38B9042F2CDCC7F10400A0421EDC84B21CE006F12C0158462A464B
:20009C0008F080FA30B9042F1DDCC7F10400A0420DDD0EE03C3658462A46314608F072FAEC
:2000BC00A0B9042F0FDCC7F10400A04201DC82B200E02246A8F80020D9F80C100098C9198F
:2000DC0004F0B9FF07E04FF0070A04E050464FF00A0AA8F800005046BDE8F88F34AE000010
:0400FC0009F000B84F
:200100003C000000000000000000000034010000000000000000000001000000000000006D
:1C01200000000000000000000000000001000000000000000800000000000000BA
:20013C00340000000000000000000000680100000000000000000000010000000000000005
:14015C00010000000000000000000000080000000000000086
:2001700030000000000000000000000098010000040000000000000001000000FFFFFFFFA5
:10019000FF00000001000000080000000000000057
:2001A0002C0000000000000000000000C4010000040000000000000001000000FFFFFFFF4D
:0C01C000FFFFFFFF08000000000000002F
:2001CC0034050000E401000099A1011095A70110A5C2011009B2011045B80110000000000B
:0801EC00000000002F000000DC
:2001F400280000000000000000000000140200000000000000000000FFFFFFFF00000000B1
:080214000800000000000000DA
:20021C00300500003002000069C201106DC101101FC2011095BA011000000000000000008E
:04023C002D00000091
:20024000300500005402000075C20110A9B601109DBF011049B601100000000000000000DE
:040260002E0000006C
:200264002400000000000000000000008002000000000000000000000000000008000000CC
:040284000000000076
:20028800240000000000000000000000A40200000000000000000000000000000800000084
:0402A8000000000052
:2002AC00240000000000000000000000C8020000000000000100000000000000080000003B
:0402CC00000000002E
:2002D00000000000CC19002004000000000000000000000020000000700100003000000044
:2002F0001C020000D41900200400000000000000000000000C000000300400001800000067
:2003100040020000DC190020040000000000000000000000240000004804000018000000EA
:2003300000000000E419002004000000000000000000000010000000A00100002C000000AF
:20035000CC010000EC190020040000000000000000000000200000006402000024000000ED
:20037000FFFFFFFFF41900200400000000000000000000002800000088020000240000006A
:20039000FFFFFFFFFC190020040000000000000000000000580000003C010000340000004F
:2003B000FFFFFFFF041A002004000000000000000000000010000000600400001800000063
:2003D000FFFFFFFF0C1A00200400000000000000000000001C000000AC02000024000000D9
:2003F000FFFFFFFF141A002004000000000000000000000038000000F4010000280000004A
:20041000FFFFFFFF1C1A002004000000000000000000000054000000000100003C000000E5
:1804300018000000000000000000000040040000080000000000000050
:1804480018000000000000000000000058040000080000000000000020
:18046000180000000000000000000000700400000800000000000000F0
:0804780002000000B0B1000019
:040480000068704759
:040484000100000073
:0404880000008C0FD5
:04048C000000BC0FA1
:040490003200000036
:040494000100000063
:0404980058190020CF
:04049C00000200005A
:0404A0000000000058
:0404A40001CA011078
:0404A8000000000050
:0404AC00000000004C
:0404B0000800000040
:0404B40000007612BC
:0404B80040180020C8
:0404BC00010000003B
:0404C000701900208F
:0404C400080000002C
:0404C8000000000030
:0404CC00000000002C
:0404D0000000000028
:0404D4000000000024
:0404D8000000000020
:0404DC00010000001B
:0404E000A818002038
:0404E400060000000E
:0404E800010000000F
:0404EC007017002065
:0404F0000000000008
:0404F4000000000004
:0404F80000020000FE
:0404FC0000000000FC
:02050000704742
:020502002900CE
:020504000100F4
:020506002500CE
:020508002D00C4
:02050A002E00C1
:02050C002F00BE
:02050E000100EA
:0105100001E9
:080514000300000084B10000A7
:08051C000000000000000000D7
:040524000000930D33
:040528000000AD0D15
:04052C0087C401106F
:04053000380500008A
:040534003805000086
:0405380000000000BF
:04053C0090610000CA
:0405400090610000C6
:0405440000000000B3
:040548007019002006
:04054C005B8D0000C3
:040550002000000087
:04055400D4B000001F
:0405580018B00000D7
:04055C000DC30110BA
:0405600027910000DF
:0405640029910000D9
:0405680099C801101D
:04056C009BC8011017
:040570000000000087
:0405740014930000DC
:0405780030AF0000A0
:04057C0048AF000084
:0405800018AF0000B0
:020584000280F3
:020586000380F0
:02058800C0179A
:02058A0001006E
:01058C00016D
:040590000000000067
:040594000000000063
:04059800000000005F
:04059C00000000005B
:0405A00009910000BD
:0405A4009D76000040
:0405A8000D860000BC
:0405AC00857B00004B
:0405B000E77C0000E4
:0405B400597F00006B
:0405B8001D5C0000C6
:0405BC00DF8E0000CE
:0405C000796400005A
:0405C400D5870000D7
:0405C800F58F0000AB
:0405CC000800000023
:0405D0002400000003
:0405D400180000000B
:0405D80028000000F7
:0405DC0020000000FB
:0405E0003C000000DB
:0405E4000C00000007
:0405E80034000000DB
:2005EC002DE9F04FADF13C0D01F0B8F8C44A18320792C84AC64C136846F2A812B2FBF3F2FE
:20060C00089244F62062B2FBF3F20992BC4A22320A92BB4A121D0B92B94A4FF00A080832F6
:20062C000C920820ADF808004746ADF80A704FF0FF36039602A807F099FB0028F1D1002043
:20064C0006900827ADF808700926ADF80A6002A807F08CFBDDF810A00028CDF818A062D1E9
:20066C00BDF80C004FF00109102854D1A7489DF80E10007888424ED1554628884FF6FF7104
:20068C00814219D02878B02845D1687816280DD16888394607F0FEFC40B9484607F07EFDBF
:2006AC0006989A494FF00009086134E0297905F1080008F079F92EE0688800092BD39348FE
:2006CC00066946B3807891497588401C887096F804B0102007F0C8FF0836071C1BD00221E4
:2006EC00152208F0EFFB3D8187F80AB0FE6007F0CBFF894A394606F01FFF0546162D0AD0F1
:20070C00042D08D0814800694088002107F0C2FC284607F043FD069828B1B9F1000F02D04D
:20072C00504608F065F97948C06808F0E9FD00287FF477AF7548C06808F0DEFD00F1090582
:20074C000D9000F10901007A00283AD0801E1ED0401E00F0E982401E02D0401E4DD0E6E291
:20076C000D88102007F080FF071C00F0E0820121132208F0A7FB3D810020B8720646FE601A
:20078C0007F082FFC04A394606F0D6FECFE22E8841F210100027361A05D04AF6AE10361A2E
:2007AC0006D1CE4F07E0287969886A1D02F0E8FC002F00F0BC82287969886D1D2A46B8477B
:2007CC00B5E2288841F21011814240F0B082A978C34A681D05F002FC2F79002F40F0A78277
:2007EC006F79042F05DC002F1CBF4848476240F09E8246490120486299E2C84902200F4601
:20080C00086338688008F8D2C548404F026E7B6A5088606A01468B4202DD401C491C606266
:20082C008B4240F06682D34903200F460860B96A7D25CCA60FF2303B0FF230390FF2303A53
:20084C0005FB01F0400987B20A2F278066DB642F38DBB7F57A7F1ADB0DF1120100254046FC
:20086C0042466D1C4346B7FBF0F05043EDB2381AB7FBF3F73030002F01F8010DEFD1204862
:20088C002A4604F0E0FB1E493078485562E00DF112010025404642466D1C4346B7FBF0F037
:2008AC005043EDB2381AB7FBF3F73030002F01F8010DEFD112482A4604F0C5FB1048594641
:2008CC0040191FE00DF112010025404642466D1C4346B7FBF0F05043EDB2381AB7FBF3F7AC
:2008EC003030002F01F8010DEFD105482A4604F0AAFB034849468A784019827002E0C04631
:20090C00A41600200988018024E0C046C007002094160020CCB10000B58E00000DF1120153
:20092C000025404642466D1C4346B7FBF0F05043EDB2381AB7FBF3F73030002F01F8010D1E
:20094C00EFD1C5482A4604F07EFBC3485146096840190160C04808F0CBF9BF4980B24BF6D5
:20096C00BE220091002101900B46022005F05EFE1E2700250DF11201404642466D1C4346E9
:20098C00B7FBF0F05043EDB2381AB7FBF3F73030002F01F8010DEFD107982A4604F053FBF2
:2009AC00494607980A884019028089788170079808F09EF90799012380B24BF6BE220091C8
:2009CC0000210190022005F031FEE0680B21012206F01CFD089808F08BFCCFA01E2107F0A9
:2009EC00D6FF08F007FB00202062CE48418807462181B888608100EB0140E061099808F085
:200A0C0077FCE069D0490A9A236A0B251C27B1FBF0F001B2E18005FB01F090FBF7F1CA4D36
:200A2C0022F81310E169E06840F2F947B5FBF1F109B28F4205DC2188B1F5486FC8BF0122BA
:200A4C0000DC00220C2106F0E1FC206A401C04282062CADDE0680B21002206F0D7FC60880A
:200A6C001E3081B2B9A0618007F091FF08F0C2FA6088B0F5FA7F09DB2188E068B1F5486F3C
:200A8C0005DD012204E0C046A78E0000E06800220C2106F0BBFC67880A2F6DDB642F41DBC3
:200AAC00B7F57A7F1EDB0DF112010025404642466D1C4346B7FBF0F05043EDB2381AB7FB6E
:200ACC00F3F73030002F01F8010DEFD10B982A4604F0B9FA30780B99485569E06559000020
:200AEC001C0800200DF112010025404642466D1C4346B7FBF0F05043EDB2381AB7FBF3F79E
:200B0C003030002F01F8010DEFD10B982A4604F09AFA0B985946401920E0C0460C500C408F
:200B2C00081600200DF112010025404642466D1C4346B7FBF0F05043EDB2381AB7FBF3F763
:200B4C003030002F01F8010DEFD10B982A4604F07AFA49460B988A78401982700988018027
:200B6C0026E0C04600C046C02000C046202000C020202000005009400DF1120100254046BC
:200B8C0042466D1C4346B7FBF0F05043EDB2381AB7FBF3F73030002F01F8010DEFD10B9804
:200BAC002A4604F050FA51460B980968401901600B9808F09DF80B9980B200914BF6BE225E
:200BCC00019000210220034605F030FD40464146A08062A007F0DBFE08F00CFAA7880A2F65
:200BEC005BDB642F3ADBB7F57A7F1ADB0DF112010025404642466D1C4346B7FBF0F05043F6
:200C0C00EDB2381AB7FBF3F73030002F01F8010DEFD10C982A4604F016FA30780C994855E3
:200C2C0055E00DF112010025404642466D1C4646B7FBF0F05043EDB2381AB7FBF6F7303005
:200C4C00002F01F8010DEFD10C9E2A46304604F0FAF9761958461DE0A41600200DF1120106
:200C6C000025404642466D1C4646B7FBF0F05043EDB2381AB7FBF6F73030002F01F8010DD5
:200C8C00EFD10C9E2A46304604F0DDF9484681787619B1700088308019E00DF11201002590
:200CAC00B7FBF8F06D1C00FB08F0381AEDB2B7FBF8F73030002F01F8010DF1D10C9E2A460E
:200CCC00304604F0C0F950460068761930600C9B184608F00DF880B2009300214BF6BE22BF
:200CEC0001900323022005F0A1FC204F00203A6E60620020508008F0E3F908F0F5FA05468E
:200D0C0008F0EAF918496B202B27087028460F7008F0E6FA0BE0C04674656D702025752EE2
:200D2C00200A00C0EA000E40087804F05DFD0820ADF808000527ADF80A700D9E039602A8A9
:200D4C0007F014F8EFE4C04600366E016F6D6567614176652025752E200A00C04772616491
:200D6C002025752E200A00C005500C40081600202DE9F04F0120ADF1240DADF80A00082793
:200D8C00ADF8087002A806F0F1FF00263546D84C8DF81C509DF80C006070A6700498E06180
:200DAC004FF6FF70A082384607F05EFC5FEA00080CD00121122208F085F807F065FC07A982
:200DCC000123D94A0091414606F0D4FB9DF81C000121207004F1A80006F0E4FD04F1CC004B
:200DEC00022106F0DFFD04F1F000042106F0DAFD042031461022E07004F1480004F036FD9A
:200E0C0004F158003146102204F030FD2562267266720720E67204F148021021A072022095
:200E2C0006F028FE04F158020320102106F022FE042004F12002014606F01CFE19E0A0782E
:200E4C00B4F84050B4F84230B4F84420B4F8461006280ED1ADF80A50ADF80C30ADF80E205A
:200E6C00C948ADF8101008F043F9012002A904F03FFC0A20ADF80A00ADF808704FF0FF35F8
:200E8C00039502A806F072FF002840F0D58130460690ADF808700925ADF80A5002A806F0F9
:200EAC0065FFDDF810900028CDF8189040F0C481BDF80C00102840F0B38160789DF80E105B
:200ECC00884240F0AD814D4628884FF6FF71814200F09E812B78A23B00F083812E3B40F007
:200EEC009F81A878B046002800F05081801E00F02881401E012840F2FD80801E00F0AD809F
:200F0C00401E73D0401E60D0083800F05B81801E40F05D8194F83E30A888052BADF80800D7
:200F2C004BD001208DF81200974808F0E1F894F83E00012820D004281ED003280DD00228F3
:200F4C000BD00698C188ADF80A100189ADF80C104189ADF80E1080892BE0B4F84000B4F880
:200F6C004250ADF80A00B4F84430ADF80C50B4F84600ADF80E301CE0B4F84000E98888420B
:200F8C00D8BF081CADF80A002989B4F842008842D8BF081CADF80C006989B4F84400884259
:200FAC00D8BF081CADF80E00B4F84610A889814200DC0146ADF8101001E08DF81260AB4A0C
:200FCC0002A8122106F025FE01E1A94808F090F86878002840F0FB80E888E08228892083E3
:200FEC0068896083684807F0EBFEF0E0B5F804A00A2007F039FB5FEA00080AD00121152287
:20100C0007F060FFA8F808A007F03EFB414607F0AFF8B8483146062204F028FCE682268309
:20102C006683A8796073584808F062F8904808F05FF84FF001084FF6FF706379A0824BB9B0
:20104C00A879082814BF04200520A070404607F077FDBCE00320A070B9E06878002840D195
:20106C00A449281D02680A60808888800623A3706889A082E889E082288A2083688A608302
:20108C00E878207394F83E00012818BF022808D11F2006F007F94FF47A7141433A4806F025
:2010AC00A3FA95F803B0B5F80AA0142007F0DCFA5FEA000800F08E800121142207F002FF50
:2010CC0088F808B02D1DC8F80C50A8F810A0042088F8120007F0D8FA7F4A414606F02CFA2B
:2010EC0078E0687831286BD12671042023E0C046D40B00206878002862D1A878618AA278F4
:20110C00032813D02079657921B9012814BF6671267105E0054303D0724806F065FAA278D1
:20112C00072AE2D1062006E0C38E0000062A06D0207910B90320A0704CE00220FBE7072070
:20114C00F9E7687800283BD1EB78A078E17993B9022815D0072813D0062802D16179012948
:20116C000ED103280CD05F4807F02AFE40B9012007F0E6FC04E0604A404605F0D3FB687015
:20118C006878E8B923E0C046A00C00206878B8B9554A0220102106F087FC544A032010213F
:2011AC0006F082FC5548ED1C29680160AB888380534A01252846A179A57005F0B3FB48B1E5
:2011CC00A77007E0A888454A102106F009FDB8F1010F25D1606A18B3016809B3A0788847C9
:2011EC001EE0687913281BD12889012808D1A07B022805D11E4807F07BFF05F065FD0FE0F2
:20120C00052006F04FF80146194806F0EDF907E06888C00B04D3364A0420014606F044FC42
:20122C00069848B1ADF808700320ADF80A00CDF80C9002A806F09AFD208A65792179420818
:20124C0030D320F0010055EA010320822AD08DB92C49207A8DF80800657A8DF809500A687E
:20126C000DF10A031A608988998006E07F900000C40C002003208DF80800A07AE57A184A43
:20128C008DF8100006218DF8115002A805F080FE616A30B1A77021B1086810B109683846CE
:2012AC008847208A810807D3174920F002002082304604F01DFA208AC108FFF4DAAD20F0B4
:2012CC000400A57B2082681E3FF4B9AD401E7FF4D0AD05F0F9FCCCE5998E0000A3900000DA
:2012EC00979000007C0C00201C0C00202C0C0020F40B00200C0C00205B0C0020000C002069
:20130C003C0C0020060C0020120C00202DE9F84F8046DD480122A0F130010A60D7490F68BB
:20132C00002FFCD0D74ED64AC02706F1040B1760DBF80010890804D23168090C41F0F001E3
:20134C0000E07221E34AE44D4FF0000982F85412A5F1D407C0F80090D6F808A03868C0F306
:20136C00046007F077FD5246534600EB2270401C162805DA10F10A0FB8BF6FF0090000E092
:20138C001520E649E64F00F01F0040F4F8500880386880083ABFE348C0F8009042F040622D
:2013AC00E149A5F13C04D00E970E80F0010000F00100086087F0010000F0010088602068FB
:2013CC00C0F38367C0F38F215FEA9A4022D243F3072000280BD542424846490805D17F08C5
:2013EC0006BF0127391C4FF6FF71521EF5D1002810DD4FF6FF72490041F001018A4207D2C8
:20140C007F0047F001070F2F92BF01210F27111C401EF0D141EA0741182006F041FA20686B
:20142C002768C34CC0F3870140F2FF324B4607F0030041EA0021274688B22C210090A7F171
:20144C00400005F089FCA5F110073868C0F30D011C2006F025FAB54957F8080C014000F0D5
:20146C007C400143142006F01BFA57F80C1C01F47C000904090C0143102006F011FA57F853
:20148C00042CDBF80010C2F30350C2F30343490812D231680E0510EB267003D41028A8BF42
:2014AC000F2000E04846090413EB217303D4102BA8BF0F2300E04B4643EA001302F47F40D3
:2014CC0002F0FF01B8F1220F40EA034041EA000124BF02F0804211430C2006F0E1F9B8F10B
:2014EC00220F32BF01202868C0F30070B8F1220F4FEA400040F0200084F8090126BF28684C
:20150C00C0F3407001208B4EB8F1200F40F0100084F8090138BF494606D33168C80C00F404
:20152C004070C1F384510143282006F0B9F9B8F1200F26BF3068C0F301504846B8F1220F71
:20154C004FEA400040F0600084F80C0126BF2868C0F3C0604846B8F1220F4FEAC00040F014
:20156C00800084F8010126BF2868C0F345504846B8F1200F4FEA800040F47C40A4F89C015C
:20158C0038BF6D490AD3306801038A15920501F47C1100F00F00114341EA0031082006F094
:2015AC007FF92E464FF480002060A6F1D000816D40F20F226FF31F418A4213D901680068ED
:2015CC00C1F30367C0F3034007B17F1E072805D006280EBF0720801C00F00F003D4947EA1E
:2015EC0000100870CAF381477F1E02D07F1E28D023E03168880C20D24FF4804020604F4892
:20160C00D0F802204B0AC1F3033703F0800322F08F02134347EA0302C0F80220D0F8013019
:20162C000F0A67F30303C0F80130026801F0E70722F0E70247EA020102E04FF000412046FC
:20164C000160DBF80000C0F3C0070FB94020A0624FF400703E4F206428684FF04008C0F318
:20166C00C14040F0300084F8C800CAF38150A8B3401E0BD0401E28D0022127E0940222431C
:20168C0000600C40AC3F005040100940012007F0E7F805460420294605F058FA042007F087
:2016AC00DFF88542FAD12648056825F07F4006F0A5FB384614300068036807214FF06022F2
:2016CC00280E98474FF4806020600321042005F03DFA0AE0026008408C1300500420012109
:2016EC0005F034FA174806F089FB203E30681649164B47F6180500F03F0084F8CB0F3A46CD
:20170C000D8018681068C168022088471248114EC0F8008001213160BDE8F88F6E62084036
:20172C000000094094042A4300002043FCFCFC0040A00C409813005000803F400A60084020
:20174C00A83F0050BD37860070B00C402C200940A00100109404604200600C402DE9F047E7
:20176C004FF008080126ADF1780DADF830800CA8ADF8326006F0FAFAD04C9DF83400002590
:20178C0004F1440720700E98A5612946A060384607F0A2FD04F1500004F18401E76003F045
:2017AC0083FD606108B907F093FD03A829462422434607F089FD8DF86A60ADF8405040F278
:2017CC00053031460DF16A0200F0ACFF40F20630022110AA00F0A6FF621C4FF44270314688
:2017EC0000F0A0FF04F1380240F20730092100F099FF06204FF4C86105F0B6FF07204FF45E
:20180C00C86105F0B1FF40464FF4C86105F0ACFF09204FF4C86105F0A7FF30461E2105F082
:20182C00A3FF28468DF86D000F958DF86B6037468DF86C6004210FAA8DF86E704FF4816073
:20184C0005F078FF4FF480600DF16B02394605F071FF40F202401BAA394605F06BFF40F255
:20186C0003400DF16D02394605F064FF40F206400DF16E02394605F05DFF032006F02EF9DF
:20188C00042006F02BF98E488E4A132105F028FD8D49032005F014FE06F028FC8B4DA86008
:2018AC00C8B106F0D1FE06F021FC286198B106F0CBFE06F01BFCA86168B106F0C5FE06F05C
:2018CC0015FC286238B106F0BFFE814A05F124000D2105F005FD7F4E7F4A032106F1080002
:2018EC0005F0FEFC7D487E4F7E4BDFF800A20068814E814638681F888046381C1DD018EACB
:20190C00090F1AD07848006818EA000F05D150460068008818EA000F0FD03068BA2352A2CB
:20192C00009303211C9084460192724B029170491A88086847A34146E047664B04F1200062
:20194C0004F1300128605960D7B118EA090F17D06548006818EA000F05D150460068008809
:20196C0018EA000F0CD03568C92048A70090614E01975F4B029132881868414635A3A8475D
:20198C000DF142000021282203F070FF002001210DF1420201F0F4FB022004210DF1420241
:2019AC0003F0DAFF032004210DF1420203F0D4FF012004210DF1420203F0CEFF0020042172
:2019CC000DF1420203F0C8FF4C4DA87820BB04F11C0095F80180EE786862182006F044FEAC
:2019EC00071C19D00421002207F078F9404606F088FD38727E720020B87205F14803FB609F
:201A0C0005F158023A6105F12001796106F03CFE3B4A394605F090FD0C2006F025FE071CC0
:201A2C000AD00121042207F04DFA2834BC6006F02BFE394606F09CFB0120102106F068F8EF
:201A4C000220102106F064F800F01EFD1EB0BDE8F087C046696E74657276616C5F736572CC
:201A6C00766963652E6300C05265676973746572656420736572766963652C2025642061ED
:201A8C0074747269627574657300C046526567697374657265642063616C6C6261636B7380
:201AAC0020746F206170706C69636174696F6E2E2053747275637420257000C0C007002034
:201ACC00E40F00206CB1000079900000B813002034AE00000818002088B000004005000037
:201AEC00DCB1000016B200003C05000044050000F4B1000084050000ECB10000D40B002031
:201B0C00859000002DE9FE4FB84C0F460646F80B80F04781B80880F0D480B54DDFF8D8929A
:201B2C00DFF8E0B2DFF8E882DFF8F4A22C68B80F67D2B0480678002E47D1380947D3AF48E0
:201B4C0001264946067000240C70204602F085FCAB4807F0C5F9AC492246584607F0BFFA81
:201B6C00AA48017801291CD141460B78CBB9A94E306880B107F09EF82B68A8493668A64DE7
:201B8C000A68C01A000B82182860B2EBC61F28BF0C6007D20A60A4484FF0005107F030F80D
:201BAC002CE00670504640F609010180417B01F0F00141F0010141734480017B01F0F00199
:201BCC0001734460974E306018E0390914D2B80BC0F004819D48001D07F088FA061C08D0DF
:201BEC00706830B17468F068B6F91C1098A20CCAA04727F40057F1E00021017027F008071F
:201C0C00ECE0ECB1042006F02BFEC8B107F052F8864A29681060814226BF401A401E401AC7
:201C2C00000BF060F06800F58D70F060F16840F6C410884203D340F2EE228A4200D9F06069
:201C4C000024D6F818C02C60BCF1000F10D050460D30007810F00F0F0AD1708C40F6090106
:201C6C00814205D17CA20CCA30466FF48071E0476F495846224607F032FA4546287850B1CD
:201C8C000220ADF80000684606F060FB2C70BDF808006849088049460120674A674B087055
:201CAC0010781C70401C1070192007F091F8756925B16BA20CCA30462146A84727F000579E
:201CCC008CE004F10C0A504607F010FA061C5FD005F0FAFC7368B2690025B561E3B1F37F77
:201CEC0042F002024FF00009904603F007035B1E07D05B1E03D09B1E06D15BA002E05CA082
:201D0C0000E05DA090E800037268F068B6F91C104B4694464246E04707F0E6FA8046B4F9EE
:201D2C001200401C6FF31F306082E0681F30017801F07F010170504606F0BAFE404607F0E3
:201D4C00CFFAF068B0F99410B4F9122091421FD13B49097801291BD090F896409CB904682E
:201D6C008CB1384909680968B1F1FF3F10D0364909687030B4FBF1F107F0A2FAF06870304B
:201D8C0007F09AFA04E080F89650284604F0F4F9504607F0ABF927F0020708B147F00207D1
:201DAC001CE007F0A1FA01462046083007F09EF90646B469084607F093FAA0080CD25EB146
:201DCC007068B169A143B16130B17568F068B6F91C1000232246A84727F480471FB1124898
:201DEC00394606F00DFFBDE8FE8FC046B82700200C2800202F2800202B2800202928002070
:201E0C00A95B00006C2700207D8500002D2800202828002008280020142800200428002020
:201E2C00CC2700200010044068260020102800205141000030270020312800202A28002035
:201E4C00481A002018280020CCB10000B827002000000000200000000000000000000002F6
:201E6C000000000000000004000000000000001000000000000000400000000000000020E2
:201E8C002DE9F04F09AFADF13C0D08900A92388809911E46ADF81800101C08BF002000F090
:201EAC008481002700F101094FF0FF3A4FF0010BB8466CE1252940F063811078521C0A92ED
:201ECC002D2818BFADF8068005D15846551CADF8060010780A9530281CBF4246434605D1CE
:201EEC000A9908785A465B46491C0A912A28CDF80080554616D1306804930A99CDF808A01A
:201F0C00C01C4B1C20F00300001D306050F8044C0A93002C0878009418D5ADF806B064424F
:201F2C00009413E044460AE0610001EBC4010918A1F130040A9908780094491C0A91302892
:201F4C0001DB3A28F0DBCDF808A004932E282BD10A9908782A2801F101010A9111D1306898
:201F6C00CDF80880C01C20F00300001D306050F8045C002D48BF454608782B46491C0A9114
:201F8C0011E0454643460AE0690001EBC5010918A1F130050A9908782B46491C0A91302857
:201FAC0001DB3A28F0DB02930AB1224604926C2804D04C2818BFADF8048005D10A990878E9
:201FCC00ADF804B0491C0A910BA9CDF80C800FAB07916428059300F08B80692800F088809D
:201FEC00BDF818C0752872D078286ED06F286AD0702850D063283DD073281ED009980A999D
:20200C000128A1F101010A9115D96B490C68B5F1FF3F03D0A84288BF6D1C00D8099D0295C0
:20202C0008A80AA932466B46A0473F180A99039801F1010974E040462AE030680A99C01C95
:20204C0020F00300001D306050F8040CBCF1000F01F10109014608B955A00146079106F0D2
:20206C0047FE0390B5F1FF3F5BD0A842C4BF281C039056E03068C01C20F00300001D3060BF
:20208C0010F8040C5D468DF82C000A990395584601F1010945E0082035680490E81C20F061
:2020AC000300001D306050F8041C082210230FA803F020FE401E0790402101700A990798CE
:2020CC0001F1010929E0082302E0102300E00A230A99306801F10109C01C20F00300001D5F
:2020EC00306050F8041CAA42BCBF2A1C049210E00A99306801F10109C01C20F00300001D66
:20210C00306050F8041CAA42BCBF2A1C04926FF009030FA803F0EEFD0790059D281A03906A
:20212C00009C241ABDF8065000945DB906E008A8202109AA06F0E0F87F1C009C641E00945F
:20214C00F5D503980546401E039075B9BDF80600E8B10098401E009019D408A8202109AA39
:20216C0006F0CAF800987F1CF4E70798411C0791017809AA08A806F0BFF803987F1CE1E772
:20218C0008A809AA06F0B8F87F1C09F101094A460A9812F8011C401C00290A907FF48AAE68
:2021AC00089808B14146017038460FB0BDE8F08F286E756C6C2900C0F8B100002DE9F04F97
:2021CC0009AFADF13C0D07900A930992089138793F880B90084605F049FB0546DFF87CA212
:2021EC00DFF87C92DFF87C82DFF884B2A348002D06880C9540F0AB80A148FF2500240168D0
:20220C000D9516B35046006801421ED048460068014204D1404600680088014215D099488B
:20222C0040F29D13056800935FA201926FA30293079803900A98049005970B988B4B069062
:20224C001A88894B186853A3A847002F4BD10A9869A23D18022D27DAC5B90B98182818BFE2
:20226C00122813D15046594600680968002E38D0014236D048460068014204D140460068AB
:20228C00008801422DD04FF4DB761FE0089809990A9AC068C01902F0D6FE002D42D00C9847
:2022AC000D90754E35803DE058460168CEB150460068014215D048460068014204D14046A0
:2022CC000068008801420CD040F2AD16694805680096664B0192644E02941A8830682DA3A4
:2022EC00A8470D241EE059460968D6B150460068014216D048460068014204D140460068FA
:20230C00008801420DD05B484FF4D47643A305680096564E0193544B0294328818681DA389
:20232C00A84707240D98FF280FD05348801C006858B106684EB10A980C9A099BC01980B2C0
:20234C000090079841F21011B04720461FE059460968DEB150460068014217D048460068D5
:20236C00014204D140460068008801420ED0414804684FF4D17732A6002500973B4B019671
:20238C00394F02951A88386802A3A0470A200FB0BDE8F08F696E74657276616C5F73657229
:2023AC00766963652E6300C05772697465417474724342203A20257320636F6E6E48616EF7
:2023CC00646C6528256429206C656E28256429206F666673657428256429206D6574686FEB
:2023EC0064283078253032782900C046494E54455256414C3000C046496E76616C696420ED
:20240C0076616C7565206C656E677468207761732072656365697665642E00C0416E2069F9
:20242C006E76616C6964206F666673657420776173207265717565737465642E00C046C01A
:20244C0041747472696275746520776173206E6F7420666F756E642E00C046C0400500006B
:20246C003C05000044050000F4B1000084050000D8B10000ECB100000A18002016B2000068
:20248C00DCB10000F0B100002DE9F04F8F4C04F13C0004F14801ADF1340D02F005FFDFF8B7
:2024AC003492A046E06000BB89484F4601683888D8B189480068014217D088480068014273
:2024CC0004D187480068008801420ED08748046840F2A7176DA600250097834B0196814F0C
:2024EC0002951A88386866A3A04703A800212422082306F0E9FE002608F1680003AB7C49F3
:20250C000896324606F0D4FE05F0A6F8DFF8F0A14B46784D794F78485AF81D4CDFF8F491E1
:20252C006F60B3F800B02860C4F38007002F50D174499CC905F15C009CC09CC99CC01EC9D7
:20254C0080E81E00764CE96EB5F86A200127FF235534C4F8AB3F6C48C4F8FF7F02F073FDD0
:20256C00A86F804742F60B3542F22B0044F8550C664944F8515C4FF480730B6044F8216CFB
:20258C0044F83D7CC4F8B37FC4F8F37FD4F8F30F06F0AAFE5AF81D1C5D4A41F004014AF808
:2025AC001D1C116821F0F05141F03451116006F097FE494601F12400006805F027FA06F040
:2025CC007CFD06F083FD05F03BFA06F079FD06F083FD06F089FE49460A684B68120442EA81
:2025EC0013420C310832CA604FF480370F610A6842F4A0220A60D1F8F02F22F01F0242F04E
:20260C002502C1F8F02F06F06BFE012002F084FBD8F80C000421012204F0F8FE3E480068C2
:20262C0046F2A811B1FBF0F006F062FED8F80C000421324604F0EAFE38480168BBF1000FC2
:20264C001AD025480068014216D024480068014204D123480068008801420DD023484FF471
:20266C00E47713A5046800971F4B01951D4F02961A88386802A3A0470DB0BDE8F08FC0467F
:20268C0073635461736B2E6300C046C04572726F7220696E697469616C6973696E672062BE
:2026AC006F617264204C45442070696E7300C04673635461736B20696E697469616C697344
:2026CC006174696F6E20646F6E6500C094160020D8B1000016B20000400500003C050000AC
:2026EC0044050000F4B1000084050000ECB100001F520000081600202B900000359000008B
:20270C002D10094094AF000000000E4000100E400030094008200940CCB10000DCB1000044
:20272C0000500C40F8B5A0F2013517460E46022D40F214818A4A8B498B4B2D1F0F2D04D9F2
:20274C00143D4AD0AD1E1CD011E0DFE815F0C300BC00F400E400B300AB000701A2009A0095
:20276C00100010009200880079006F006300282880F2F480022E40F0F180398804F0F4FF19
:20278C00F8BD012E40F0EA8015462879012800F0E58051793878507181B9002800F0DE804A
:2027AC009078012800F0A980042800F0A680062800F0A380052800F0A080F8BD3878002876
:2027CC0040F0CC809078032800F0A280072800F09F80052800F09C80F8BD012E40F0BE8063
:2027EC003878012840F0BA80154605F1F00006F0E7FA002840F0B2802C46002004F13E0122
:20280C0002F076FF002840F0A98004F1CC0006F06FFCF8BD022E40F0A18038880A28C0F2C8
:20282C009D80B0F5486F00F3998015E0022E40F095803888B0F5FA7F80F290800880F8BD00
:20284C00022E40F08B8038880628C0F28780B0F5486F00F383801946891C0D4638E0022E69
:20286C007CD13888062879DBB0F5486F76DC1946F3E7012E72D1387806286FDA891F0D4642
:20288C000EE0012E6AD13878042867DA15460B3506E0012E62D1387808285FDA15460A3521
:2028AC002870F8BD012E59D13878042856DA1546093506E0012E51D1387804284EDC154629
:2028CC0008352946DBE7022E48D13888154612352946B3E7012E41D11546687901283DD017
:2028EC0011793878107161B9002837D09078012803D0042818BF052830D1012006F020F963
:20290C00F8BD387850BB9078022818BF052825D106F02EFAF8BD154605F1870400211F22FE
:20292C00204602F0A3FF39463246204602F08BFB0020EE710EE0154605F1680400211F2230
:20294C00204602F093FF39463246204602F07BFB0120AE713146224603F0E4FFF8BDC0460C
:20296C00D40B0020180C0020140C00202DE9F04F0128ADF1140D40F0F280DFF81492D9F89B
:20298C00DC00012840F0E9800220C9F8DC0006F08BFC0290012004F093FA20B101210646DE
:2029AC00C9F8DC10D5E006F07BFC03906E484FF00008C0F80080012005F052FF012818BF0D
:2029CC00CDF8008004D1404603F0B0FE0120009066486E4CC0F800801934D4F8FF0F112001
:2029EC0006F0B4FA00280CBF46460126102006F0ADFA08B146F002060F2006F0A7FA08B13E
:202A0C0046F004060B2006F0A1FA30B1584800685849006B0246088890470A2006F096FA5A
:202A2C000028404618BF01204FF0805B0BF5DC7528B128685049006B0246088890474F48C6
:202A4C000127076028688069014646F0200088474B48076006F074FA00F0010101914008CC
:202A6C0015D2484806F0FDF98246BAF1040FF8D0BAF1010F06D1DBF8D801406802464148E2
:202A8C00032190474049086820F003000860404600F080F82868D4F8FF1F806B8047019808
:202AAC0001280ED0BAF1010F06D1DBF8D801406802463448394690473349086840F00300E4
:202ACC0008602A480760286840690146304688470B2006F03BFA28B128682649C06A024644
:202AEC00088890470A2006F031FA28B128682249C06A024608889047204807600322C9F8B6
:202B0C00DC201F4BC3F800802868406B0146304688470128F8D1042004F0D2F912480760AB
:202B2C001A48D4F8FF1F01688909FCD30098012802D1384603F0FAFD06F0FCF9082004F070
:202B4C00BFF906460398C9F8DC7006F0A5FB03F05FFC029806F09CFB02E0042600E001269F
:202B6C00304605B0BDE8F08F0C40094000022243B8010010AEAE0000AAAE000028200860D1
:202B8C0080010443004003402422084014100940A81200202DE9F84F07467F48DFF8EC8154
:202BAC0035380068800880F0E28005F0BBFB05467D480830D0F800A000244FEA2A725FEA3D
:202BCC009A5002F101020AD2C5F13E0015F10A0F4FEAE000D8BF08208242B8BF021C684E33
:202BEC00D6F87C01C0F3046006F034F903463068C0F3044006F02EF99A188346162A05DAB5
:202C0C0012F10A0FB8BF6FF0090200E015225D4B5D4802F01F0141F4F8511980006810F0B6
:202C2C00030F18BF0124C00828BF44F002040FB144F00404414691F90700281A052804DA30
:202C4C008879A04208BF888870D0DFF844810F2DA5F10F092ADB09EB0510A0F1F0094FEA17
:202C6C002920072888BF07200746062F88BF062758F827C00423464603EB8703F3584FEA86
:202C8C00940EE708A3EB0C0303F0FF0624BFC3F307273E444FEA540CA70824BFC3F307478A
:202CAC003E44670828BF06EB136605E000264FEA940E4FEA540C304658F820805FEA5E0733
:202CCC0008F0FF0324BFC8F307273B445FEA5C0724BFC8F307473B44670828BF03EB1863CD
:202CEC00B6B2A9EB0027ABEB02007E43002806F1800603EB1623D8BF012034220AF0FF0772
:202D0C0042437A43B2FBF3F04FF6FF72824238BF101C802D80B2888005DA15F1800FB8BF66
:202D2C006FF07F0500E07F25CD718C71194A12681F280A604FF0000208D340F2FF11814236
:202D4C0006D24008521C8142FBD301E01F208880124F11490F38000942EAC00247EA0200F4
:202D6C00C1F8FB0F0026C1F8FF6FBDE8F88F0D4F0B4E414608203760891D0870BDE8F88FC6
:202D8C003C1100506E62084024220840F02700209C130050082009403500094000E7A480B4
:202DAC0030100940FDFDA400AC3F00502DE9F04F09AFADF13C0D08900B930A920991B88805
:202DCC003E880C90084604F051FD6E49DFF8C4B1DFF8C4A1DFF8C49100280D88DFF8C081B5
:202DEC0007955CD1694C68482168008800240D900DB36748006801421DD058460068014277
:202E0C0004D1504600680088014214D0654840F25F130568009339A2019247A30293089846
:202E2C0003900496387A434605904F4606941A8838682DA3A8470D98B0420EDB0C99801B99
:202E4C008842D4BF82B20A1C0B9802800998C1680A98891902F0F7F81FE05348079F0168F2
:202E6C00D7B14B480068014216D058460068014204D150460068008801420DD04B484FF400
:202E8C00B57730A605680097434601964F4602941A88386814A3A8470724204620E04248D2
:202EAC0001682F1C1BD03A480068014217D058460068014204D150460068008801420ED08E
:202ECC003A4804684FF4B27727A600250097434601964F4602951A88386803A3A0470A20BE
:202EEC000FB0BDE8F08FC046696E74657276616C5F736572766963652E6300C0526561645B
:202F0C00417474724342203A20257320636F6E6E48616E646C653A202564206F6666736543
:202F2C00743A202564206D6574686F643A2030782530327800C046C0494E54455256414C61
:202F4C003000C046416E20696E76616C6964206F66667365742077617320726571756573B2
:202F6C007465642E00C046C041747472696275746520776173206E6F7420666F756E642E1A
:202F8C0000C046C016B200000A180020DCB10000400500003C05000044050000F4B1000054
:202FAC0084050000F0B10000D8B10000ECB100002DE9F843814605F0B7FF002100B90121F6
:202FCC006B4E30680028FCD06C4D01242D1DEF6A346009B105F0AEFFDFF89881C7F307205E
:202FEC0008F1BC01086005F09FFF002100B9214630680028FCD02F68346009B105F09AFFD4
:20300C00C7F38440C8F8C00005F08EFF0146002001B92046014630680028FCD0ED693460E0
:20302C0009B105F087FFC5F38120C8F8D000B9F5C061C8F8B81000F0968098F8D80068B980
:20304C00C8F8D410D8F8C000C8F8C800D8F8BC70C8F8C470D8F8D060C8F8CC60D8F8D41018
:20306C00D8F8BC60002954BF02206FF00100454605F1C8031A6801EB41014018411000EB0A
:20308C00917002EBA0021A60D5F8C810C5F8C46000291CDD1E293DDDD5F8CC0030B9342932
:2030AC00B4BF15391E21C5F8C81025E02A29BABFD5F8C8000B381E20C5F8C800D5F8C40072
:2030CC003F28B4BF401C3F20C5F8C4001FE0D5F8CC00032812D011F10B0FC6BFD5F8C800F3
:2030EC000B30201CC5F8C800D5F8C4000028CCBF401E0020C5F8C400032009E011F1150F53
:20310C00C6BFD5F8C8001530201CC5F8C8000020C5F8CC00B5F8C400174E30214FF47F42AF
:20312C0008230090304603F017FE009404214FF400321123304603F00FFEB5F8C8000421D8
:20314C004FF4F80212230090304603F005FEB5F8CC0020214FF440620A230090304603F030
:20316C00FBFDBDE8F883002088F8D800BDE8F88300800C40A812002000A00C4000A00C4015
:20318C0003462DE9F04F6648674DDFF8A0B1DFF8A0A1DFF8A091DFF8A0810F46002BADF1C5
:2031AC00240D068807924ED15E480168F6B1286801421BD058460068014204D150460068FC
:2031CC000088014212D05D48EC230468009332A2019238A30293039700220492059243463A
:2031EC0006921A884B46186826A3A047022F00DA0FBB53482A680168002E40D011423ED0BE
:20320C0058460068014204D1504600680088014235D04A48FC260468009629A50195029703
:20322C000123039300220493464605924D4606923288286821E0434C07993A46204601F070
:20324C0002FF67801BE03E480168C6B12868014215D058460068014204D1504600680088BD
:20326C0001420CD03848F02723A604680097454601964F4602932A88386802A3A04709B0DD
:20328C00BDE8F08F696E74657276616C5F736572766963652E6300C0536574506172616DDB
:2032AC0065746572203A202573206C656E3A20256400C046494E54455256414C3000C0465D
:2032CC004C656E677468206F75747369646520626F756E64733A204C656E3A202564204DEF
:2032EC00696E4C656E3A202564204D61784C656E3A2025642E00C046536574506172616D50
:20330C00657465723A20506172616D6574657220232564206E6F742076616C69642E00C09B
:20332C0016B20000DCB10000400500003C05000044050000F4B1000084050000F0B100008E
:20334C00D8B1000008180020ECB100002DE9FC416F4C204605F0CAFE15460E46009005F096
:20336C00C3FF05F001078046B6F1FF3F0DD1606820B9B4F91200401C06B202E06068B0F932
:20338C001C6064490020C91C0870304604F032FF0326002800F0A4806168814270D0009F10
:2033AC00DFF848C1B84231D03FB100990A68904209D0096800290091F7D1832E44D0404642
:2033CC0005F08EFF40E0604605F0DEF900990868AA0803D202680B4601461A6000220A6035
:2033EC00009078B10C340146C87F40F00400C877684605F05DFB0146204604F0B9FA0098E0
:20340C000028F0D1404605F06BFF1CE0604605F0BBF9A8083ABF20680068002020604046C8
:20342C0005F05EFF0C340099C87F40F00400C877684605F03DFB0146204604F099FA0098F4
:20344C0008B1A808EFD2832629482C4A007890B928480078012846D0274805F041FD0221F9
:20346C00104605F0CDFB2648007801283BD0254805F036FD37E01046022105F0C1FB32E02B
:20348C00A90803D32168009100262660C27F0121B9401143C17705F003FF0646002F14BFA6
:2034AC0019481A4804F052FF404605F019FFA80811D3009878B10C340146C87F40F004000E
:2034CC00C877684605F0F4FA0146204604F050FA00980028F0D1304605F0DEFE832602E0D2
:2034EC00404605F0FDFE3046BDE8FC81D02600202A28002029280020111B000068260020DF
:20350C002B2800205D4500000100020401000104B8270020302700202DE9F04FADF1840D83
:20352C00209000F0F5FC03F0F3FB0024012804D105F08EFA022808BF012459490868C0F393
:20354C008150012805D151F80C1C0120090E884004435448007804F0E7FFDFF84C81DFF86E
:20356C004CA1C8F8000030B15246FF2107467F1E02F8011BFBD120990968002501F0FF02EC
:20358C00FE2A1BD0DDF880C052462B46012701F0FF06FF2E0BD0B04203D907FA06F6344287
:2035AC0001D0022079E001F0FF01354353545CF8041F5B1C01F0FF06FE2EEAD1092001F0BE
:2035CC0007F93B49209824220823086001A8002105F05AFE4FF0010901AA3E488DF81C9008
:2035EC00494605F04DFED8F800303BB33A4E00274FF0040BBA4609FA07F0044218D1054295
:20360C0004BF07F0FF0141F4C04104D027482099C05D51F82010274801F0C8FAF8B24FF011
:20362C00FF3105F02BF9D8F80030C6F800A001E0C6F800B07F1C361D9F42DCD30AA8002137
:20364C003022082305F018FE1B4D1D4A2878002410210AAB12901948009405F009FE16A80C
:20366C0028220823214605F0FFFD686816AA16491C9014481D94234605F0F2FD134A52F8D5
:20368C000D0C494620F4F85040F4005042F80D0C0F4BC2F8FF1F2046196021B0BDE8F08F3D
:2036AC00B43F00503028002000280020F426002020280020007FC76798B1000034270020E8
:2036CC00A588000034260020AD6D00000D3009400800094050270020B82500202DE9F84F55
:2036EC009A4693460D46044605F0FEFDDFF85C810AAFB8F91220B8F91010009040F6F87029
:20370C00891A0840082880F29280B8F91000401C6FF31F30A8F81000B8F9109004F0F4FF48
:20372C00064604F1700005F02FF8B56086F81EB0C6F804A0F460A6F81C9097E80C0051A0D3
:20374C0003C800251040F577D8F8002006F11007194087E80300002A5CD14046314604F0A0
:20376C0007F900285BD0A4F894904448F17F0778DFF8DCA041F08001F17784F8965067B1C8
:20378C0051460F784FB1344A3449324B0570012015700A781870521C0A70009805F0A0FD50
:2037AC00D8F8040000284ED15146087800282DD12B480078012846D005F096FD0546294837
:2037CC000078F8B9B06802F0DBFF284B2C4A26491B681268086038B9284605F081FD2448D5
:2037EC00042105F00DFA2EE0D0680968214C091AB1FBF3F1204605F063FD204605F05CFD56
:20380C0028461EE01C4901200870F9E7192005F0DFFA18E04046314604F0AAF850B9B8F906
:20382C00100000F6FF706FF31F30A8F810006FF0010905E0A4F89490F07F40F08000F07712
:20384C00009805F04DFD4846BDE8F88FB82700202B2800202F2800202828002031280020F9
:20386C002A2800202928002008280020CCB1000068260020D02600202C2800202E280020DE
:20388C0018280020F1EFFF9F200000002DE9FC415E4C574D574EDFF860815A4F94F8E410F7
:2038AC00481E0B2861D8DFE800F07B2C43062343062343067664042907D001220A2945F83A
:2038CC00212C14BF0220032004E02021012045F8211C024684F8E200002045F8390C082740
:2038EC00C5F8FF7FC5F8F37F45F8392CBDE8FC81052914BF09200620002584F8E400356024
:20390C0070E094F8E1700120383D002FC5F81B0004BF0620002102D00021F160032084F8E4
:20392C00E400032045F8010C31603068800859D294F8E400012503280DD000214046602287
:20394C000523009103F008FA94F8E400062814BF0A200720D1E702200090002160220523B6
:20396C00404603F0F9F90420C7E705F075FCBDE8FC812249002622480E60012505600E2054
:20398C0000F052FE022004F069FA84F8E45084F8E360BDE8FC81002038600C2578601FE011
:2039AC001948006800680146202088472C3D41F61D560F2000214FF4C072072345F8010C28
:2039CC004046C5F803600225009503F0C5F9404600214FF4C072072303F0E4FB01203860F7
:2039EC0084F8E45004F1780005F066FCBDE8FC8139400C4038600C4000A00C402C500C40C8
:203A0C0004800C4034600C40A0010010A81200202DE9F84F0C4605460AAF564926786068A7
:203A2C003F88934698463246009004F0B3FD4FF0FF0A002831D16FBBB8F1020F28D19BF86E
:203A4C0001009BF8006006EB002636F001001DD1E06804682146284604F066FE00280CBF66
:203A6C000020807886420FD02846214604F05CFE48B921464FF6FF7004F056FE002808BF05
:203A8C00112008D005808670002004E0802002E00D2000E00B2081465EE0374D009832463F
:203AAC0005F10C0104F076FD4FF0000970B907EB0805042D4BDCE06859464246C01901F08F
:203ACC00C2FA042D48D14FF0020A48E0009805F11C01324604F05EFD70B907EB0805042D96
:203AEC0035DCE06859464246C01901F0ACFA042D32D14FF0030A32E0009805F12C01324605
:203B0C0004F048FD70B907EB0805042D1FDCE06859464246C01901F096FA042D1CD14FF0E6
:203B2C00010A1CE000983C353246294604F032FD80B907EB0805042D09DCE06859464246A2
:203B4C00C01901F080FA042D06D1CA4607E04FF0070901E04FF00A09BAF1FF0F06D00748B6
:203B6C00006818B1016809B1504688474846BDE8F88FC046C8AF000034AE0000B81300207C
:203B8C00F8B5414C201D0368B3F1FF3F08BF002303F0BEF8002876D13C4E20683468070F8F
:203BAC0004F0FF04802C28BF002403F0B1F84FF0FF3578B1401E07D0401E012802D9801EDE
:203BCC0013D014E08FB112E0381C5CD0801E0ED114340BE03846401E55D0801E53D0001FBF
:203BEC0051D0401E03D1163400E00A3465B2162D49DB27482749002501270560264E0F600C
:203C0C00264C376020680028FCD1274A161D2449244F306820F0030001433868C0080CD259
:203C2C00106810F0030F0AD041F003003060106800F003000328FAD101E041F001011B4878
:203C4C003160006820B11A4800681846FDF75EFB184819490560194F0A686FF35B4247EAE8
:203C6C000200086016490868C0F30130012806D10A681448104040F400320A60086020683D
:203C8C000028FCD1F8BDFEE718130050A0100050840460425C600C40082204430C006842B5
:203CAC0004000020B03F00500040034080012843000120438C2108404820034000003901E8
:203CCC0004000940FFFFFCFC70B5ADF1380D00F01FF9324908682822082340F0020008608B
:203CEC0001A8002105F0C0FA2D4EB0782E4907902C48002301AA05F0B3FA0021302208230C
:203D0C0001A805F0B9FA002519213078284AADF81C5001AB09902548009505F0A9FA282293
:203D2C00082301A8294605F09FFAF07822490790204801AA2B4605F093FA3022082301A810
:203D4C00294605F099FA01241A2170781C4AADF81C4001AB09901948009505F089FA19489D
:203D6C0019492A46134605F0A3FA184805F0B8F81849194E0C70164835704FF6FF72828373
:203D8C00C577164B1D70164C257016490D70174E3560154A15700EB070BDC04600200940E2
:203DAC00BEB1000068260020DD8B00006C2700207D8500009C260020CD4D000088270020F2
:203DCC0035680000D0260020C97E00005D45000014270020282800202D2800202A28002089
:203DEC00292800202E2800202F2800200C2800202DE9F04F0C464549CA7AADF12C0D8446EB
:203E0C000592487B09900D7900958A7A488B4B8A0E7B91F805A091F802800492B1F846E0B5
:203E2C0008904A7A088B0392CD7807900A7AC88A02920F6A0690CA79888A01928A79E1468B
:203E4C00A9F54079B9F11D0F10D8DFE809F05B5553514F4D4B494643413F3C3A380F3431D2
:203E6C002E2B2923201E1C0F19181716BCF1280F49DA604603F016FA21E0099EB246D04664
:203E8C00CDF814801DE00898079007980690DDF818E005E03831086820608888A08032E007
:203EAC0070460AE0B1F8440009E0B1F8420004E0B1F8400001E091F83E00034612E0208045
:203ECC0021E0059804900498039001E03231E2E7039802900298009006E0019A87310DE0EB
:203EEC0068310BE01846EAE7009D0BE02C31D2E7276008E0583100E048311022204601F08B
:203F0C00A2F800E025700BB0BDE8F08FD40B00202DE9F041444C94F8E700ADF1280D002863
:203F2C006FD1394F387B01250021242284F8E7507E6884F8E6000823C4F80C6101A805F080
:203F4C00C3F9002604F10C00069601ABADF814602E490796324605F0ABF92D4904F1300051
:203F6C0001AB324605F0A4F92A4904F1540001AB324605F09DF9B868014628468847DFF899
:203F8C009C8025487B7B0078D8F80410C1F381571BB1032F03D184F8E150032F16D0022FE6
:203FAC0014D0012F26D103201D4C009031464FF040521C23204602F0CFFE009531464FF4D3
:203FCC0000720923204602F0C7FE13E0022003F05DFF032F0CBF4FF47A7142F2107111487D
:203FEC0000685434B1FBF0F1204605F069F9204605F062F9D8F80000C00802D2304603F0F0
:20400C0045FF0AB0BDE8F0812CB100002F690000DD5300008156000030280020B03F00504D
:20402C0000A00C40CCB10000A81200202DE9F0430746880FADF1140D75D302F0D3FD404DAE
:20404C0000261C352E60394845F81C0C012000F004FA374804F044FFBC68B14640F60A0148
:20406C00344A6680537B118090465680107BC2F8049003F0F00300F0F000107343F001036C
:20408C00537300E01C46636813B118888142F9D1C4F80480607B00F0F0006073264805F01F
:2040AC0025F880680088C91F81421DD0491C81421AD03B8CC3B197F82C107E8497F82D00F9
:2040CC00C7F8249001F0F00100F0F00087F82C1040F0010087F82D0007F12003C8F80430F8
:2040EC00507B00F0F0005073B868694604F0FCFA684604F05DFEB86800F0F3FF28680028D6
:20410C00FCD02E60012004F0ABFB012808D0607B00F0F00040F001006073084804F0E0FE9C
:20412C00B86845F81C0C05B0BDE8F08301010E04111B0000CC270020B8270020E165000089
:20414C00001004402DE9F04104F09AFC3F4D3E4EDFF8FC800446A00820D330464168E9B125
:20416C00002242608B690A690F6922401A4342F0020205F108038A611A68BA4301F1100727
:20418C001A6097E80C002A680C301B1C9A432A6003F0EEFB4046022104F032FD7068A10879
:2041AC0015D200F1100191E80C00002702EA04013B40002B08BF002909D081691440B060B0
:2041CC000C4384614FF48041404604F019FD7068002837D1304604F089FF071C32D01E4886
:2041EC00F9680068884228D1B86802F0C9FA19490860E8B905F1080138690A68104308601A
:20420C002B6807F1100494E80300081C1843286000222A61B86845F80C0C05F110000068DD
:20422C000028FAD0304604F043FC7760BDE8F081086801F0A1FFBDE8F08140464FF4805139
:20424C0004F0DEFCBDE8F081B82700200C1004406826002008280020182800202DE9F04368
:20426C000646ADF11C0D04F0F3FF03F0AFFD4FF000090546CDF80C9004F098FE30F00100FB
:20428C0002D00398A84202D16FF0040066E070684C4658B1B0F1FF3F05D004A903F07EFDFD
:2042AC0030B1804659E04FF0FF3000E02046049004F0CAFF04994FF00108471802E00A4697
:2042CC003BE004936868049904F0BAFF00282DD0684602F001FAD8B99DF8040005A903F07B
:2042EC005DFA88B9B368BDF814009DF80610029A984748B1BDF814009DF80670B081029B75
:20430C00B773C846336111E0029903A803F004FF0498641CB0F1FF3FD4D00028D2D004F03B
:20432C0093FF3B1A02D004989842CAD2039F04F007FB05F1080647B13A4652F80C1C0029F7
:20434C00BDD1316842F80C1C376004F071FC24B1686804F071FF641EFAD1404607B0BDE898
:20436C00F0832DE9F04390460A68D8F800401678814600271D463846ADF1140D531C242E40
:20438C000B6053D112F8016F5B1C4C2E0B600ED1AA68E41C24F00304241D54F8040C494674
:2043AC0002F092F82968EF600127091A2960462E1AD1E41C24F00304241D54F8040CE41CAA
:2043CC00029024F00304241D54F8040C002749460390AA68ADF8047001A800F0E5FD296807
:2043EC00EF600127091A2960532E1FD1E41C24F00304241D54F8040CE861C8F80040288B69
:20440C000090A968EA69D9F800004346FDF738FDD9F80040002714B12418C9F8004029684E
:20442C00D8F80040091AEF6001272960662E0AD12B8B23B9E41D24F00704083403E0E41CFD
:20444C0024F00304241D1FB9E9690E700127EF60C8F8004005B0BDE8F08370472DE9FC41FE
:20446C003A4D804628680C4680472068B0F1FF3F29D06269500923D2100A05D32046002148
:20448C00022201F0FFFB626990094FF0000104D2D00924BF42F02002626167684FB9D00805
:2044AC0007D202F0070220464FF4807300F026F90146E2680020226101B90120074603E032
:2044CC0042F480626261002768680FB9804732E0616901F0070104291DD0A168E2688A4261
:2044EC0005D8204602F058FBF8B96868A1684A1CA2605FFA88F60E706169890807D3B8F103
:20450C000A0F04D1204602F047FB70B9686880473046BDE8FC8120688DF800806946012250
:20452C0003F0A0FFB0F1FF3F09D16069696840F48060606188474FF0FF30BDE8FC81686886
:20454C0080475FFA88F0BDE8FC81C046BC190020042998B54CD1274804F0C8FD264C48B968
:20456C00264800F11F010978490838BF206803D3406800E0C06820604168214A0978116053
:20458C00416812680978914206D0876927B124A20CCA6FF0FF01B847022003F077FC112047
:2045AC0000F016F901222168164B087C1A7018B115480078012803D00E2000F009F9216892
:2045CC00496812488F680FB9CF681FB10021C1610F4F07600F4A40F2FF711160002787617B
:2045EC000D4941610D4804F07BFC192004F020FE98BDC046B8270020182800201427002097
:20460C00D02108402A2800202D28002000100440510007060000046002000040394000009D
:20462C0000000000000000022DE9F843044604F05BFE81462D48021992F8ED10491ECFB2BE
:20464C00002F82F8ED704BD12B4D05EB84052E78698836F07F0788461AD1F10911D24FF023
:20466C008054D4F8B801806901464046884704F5DC742068406B0146404688470228F8D145
:20468C0021E000EB8800D0F80011002088471AE04FF08054D4F8B801006A0146404688473A
:2046AC00D4F8B801806A014640468847D4F8B801006B01464046884701210D4A0D48116018
:2046CC0001688908FCD306F03F003F2801D0FFF7ABFF687800F03F003F2801D0FFF7A4FF18
:2046EC00484604F0FDFDBDE8F883C046A8120020282008602820084080AE00002DE9F0417D
:20470C00DFF8C8800446D8F800001F4616460D4680472068B0F1FF3F02D0042E03D017B96B
:20472C00D8F804002EE0636873B16069010903D3581E04F0F9F9606900216160A160E160AA
:20474C0020F00800216100E0606906B9012620F00700012F46EA0006666108BF0025B7F548
:20476C00807F88BF4FF48077B5B97F1C384603F063FC0546D8F804004DB96169656041F4EB
:20478C008061616180474FF0FF30BDE8F081616941F00801616101E0D8F804006D1C656056
:2047AC002561E919A560491EE1608047D8F8000080470549034AD8F8040011608047002093
:2047CC00BDE8F08198190020D5810000BC1900202DE9F041064604F087FD2D4D8046A9198E
:2047EC0091F8ED00421C002881F8ED204AD1294C04EB8604277807F03F003F2801D0FFF71F
:20480C00E7FF607800F03F003F2801D0FFF7E0FF668837F07F001AD1F80911D24FF080541C
:20482C00D4F8B801406901463046884704F5DC742068406B0146304688470128F8D121E0B7
:20484C0005EB8605D5F80011012088471AE04FF08054D4F8B801C069014630468847D4F8F0
:20486C00B801406A014630468847D4F8B801C06A0146304688470121074A08481160016865
:20488C008908FCD3404604F02BFDBDE8F081C046A812002080AE00002820086028200840A6
:2048AC002DE9F0412C482B4908602C48FEF734FE2E4C0025032004F1180141F80C5F401EE8
:2048CC008D60FAD1241F062004F14C010A46401E22F80C5BFBD10820214F0880214A8F60F4
:2048EC002149121D22F00303CF1A6762E3612362E66904F12008944618460A4601E026F88D
:20490C00025BB142FBD8B910E82700EB810121F8045C4FF6FC761F8006EA0C0300F1E80775
:20492C00D21A676106EA0201EC39A0F8E810284600F01EFEA061D8F80000606101F012FA06
:20494C0002F0D0FB02F080FD04F06EFC2846BDE8F081C046341A0020156F0000F0AF0000A6
:20496C00D586000033280020483F0020781500202DE9F041DFF8B080044698F800001F4674
:20498C0015460E46ADF1380D012804D0FFF79CF94046012101704EB166603DB1A56004F02C
:2049AC00A3FC224A117819B104F09AFC002038E0491CC9B2117004F093FC01251FB968463B
:2049CC0004F082F96F46386820607868E060387A2074F8686061386900B1A06100217822F2
:2049EC0004F1200000F042FF05A800212422082304F04AFC04F138008DF82C50002105AAEE
:204A0C0004F03EFC05A800212422082304F05CFC04F1700006490B94002205AB04F048FC74
:204A2C0020460EB0BDE8F081491A0020322800206D900000F8B504F077FA04F081FA04466B
:204A4C0004F00C000C2845D0E0081ED203F0FEFB234E376805460120014603F0D4FE31681C
:204A6C006943884211D21F4C8220B0FBF7F0291A204604F025FC204604F01EFC0120FDF7EB
:204A8C0075FF204603F080FE25E0200922D21648610939BF016821F00101016841F00101C5
:204AAC0002460160D2F898004FF0805440F00300C2F89800D4F8B801806901462020884783
:204ACC00D4F8B801094C806B2168804701202060206800E030BF04F02DFA01F0E3F9F8BD20
:204AEC00CCB10000B41200208C2108402C2009402DE9F0470646D6F800907769B9F1FF3FFE
:204B0C0007F4805A02D002F047F818B14FF0FF30BDE8F0877069000907D37068401E04F078
:204B2C0003F8706920F008007061002777603568B7601B4CF760002D1DD420680A2D1BDA6A
:204B4C008047EA00174861681358801805468BB11969406888478046B8F1FF3F06D02968D9
:204B6C004FF6FE704A892F601040488160688047206803E0884720684FF0FF384FF0FF31C5
:204B8C00BAF1000F316007D08047074800EB091003F054FC606880474046BDE8F087C04653
:204BAC00BC190020AC14002018110020F8B50D46EEB2290824BF27494D40274BB400DFF81D
:204BCC009CC0195900EA05020CEA020200F4E02C85EA0107BCF5E02F00EA070721EA0001D5
:204BEC00C7F3006742EA010201D1510E14D300F4E0210F4310D002F4E027B7F5A02707D0D3
:204C0C00B7F5803704BF22F4003242F4A02203E022F4803242F4C0221A51114CC10D04D3F2
:204C2C00C5F38052A4F1D0018A55000E10D304F05BFB290E03D201220021B24002E0012217
:204C4C00B2401146236893431943216004F048FBF8BDC046006000A000100840007F077F72
:204C6C00D02002402DE9F0410E462A4990461C4606AF8C4672680878BB8851783F88127872
:204C8C00002502EB012242F62321521A2AD0521E052A19D9921F0DD0263A35D1072F31D82D
:204CAC00C7F10700984298BF83B20CEB070000F1080121E0B84225DBC01B9842D8BF83B24F
:204CCC002380DCF804100BE0F06804F011F880B2B84217DBC01B9842D8BF83B22380F16862
:204CEC00C9190AE0082F0DD8C7F10800984298BF83B20CEB07010F31238040461A4600F0E2
:204D0C00A2F903E0072501E025800A252846BDE8F081C046400F0020F8B5064604F0E4FA64
:204D2C00244A117819B104F0DBFA012440E00124147004F0D5FA214FA7F14002106EB2F8BA
:204D4C0068109446720805D302880A43520828BF02242BD2184D05F10C0213685B0825D329
:204D6C00EC6313685B08FCD272083CBF0021818006D3848041F001012037ACF86810386872
:204D8C00B1083ABF0021C180C480F10838BF0024048104F092F904F099F9286840F0400011
:204DAC0028602868002420F04000286004F0F2F82046F8BDBA19002000500C4048160020CD
:204DCC00F8B504F091FA224C0746A06910F4602F25D0A069400CC6B2700807D2B00803D2A4
:204DEC00F00828BF022602E0012600E00026751D68B201F043FDA16906F1110201209040AF
:204E0C0081433846A16104F06BFA04EB8600876847B1606810A20CCA2946B84702E038466F
:204E2C0004F05EFAA06918B10A48002103F0E8FEE07F80080BD367692FB1606808A20CCA3F
:204E4C006FF00101B847E07F00F0FD00E077F8BD142700209C260020000000000000000849
:204E6C0000000000000000802DE9F04114460F4604F03AFA1FFA80F81F480068007808B9EF
:204E8C0003F034FDE7B138684FF0FF3518B140280AD3810B08D17E681EB1310A04D0310EC1
:204EAC0002D1B9680F2908D93DB10CB1284620700820FFF7B9FB002418E07968BA6803E05C
:204ECC004FF480700122014602F0B0FF0B49012008600B4908684008FCD30A48006841686D
:204EEC00022088470CB1002121700446404604F0F7F92046BDE8F0813CB10000A8025042ED
:204F0C0008800240CC010010F0B520480127F84201D001F08DFE204D204F214EBD4206D200
:204F2C0003CD0478A4003459401CA047F6E71D48002800D08047164D164FBD4202D210CD2C
:204F4C00A047FAE7F0BD03251BE0416808300A1C2A400BD11A1C2A40AB4305D0046804305D
:204F6C000C600431043BF9D1131C05D0047801300C700131013BF9D1021C2A4001D0A843D2
:204F8C0004300368002BE0D17047C046FFFFFFFF000000000000000098B60000F8B60000D5
:204FAC0054B6000059C501102DE9F843002A894607464CBF47F6FF75151C002F08BF002012
:204FCC0033D03888002808BF002403D02A4600F0B5F90446281B002826DD388828B1291B79
:204FEC00484613A202F03AF82418B868E0B1D7F804802E1BB8F1000F0DD0404603F078FE31
:20500C00401DB04207DC291B48460AA2434602F025F824182E1B122E06DBBB68291B4846A1
:20502C0006A202F01BF824182046BDE8F883C0463A2000C0222573222C2000C06C696E6545
:20504C002025643A2000002A4AD05FEA000C8B071CD1830722D1102A08D370B4103A78C9E8
:20506C0078C0103AFBD270BC103238D0042A2CD3082A05D30C2A24BF08C908C008C908C0DD
:20508C0008C908C092072AD0920F22E00B780370491C401C521E22D08B07F7D1C30714D113
:2050AC008307D8D0121F12D308C903801B0C4380001D121FF8D20AE008C903701B0A437040
:2050CC001B0A83701B0AC370001D121FF4D2121D05D00B780370491C401C521EF9D16046A5
:2050EC00704770472DE9F8432020EFF3118780F31188214CA068012104F092F84FF00109C1
:20510C004FF0000865692168A4F81C906A1A2168A4F81E80461B401A904227D387F31188BC
:20512C0040462D18361A4846294604F075F8B042F7D92021EFF3118781F31188E18B0129CA
:20514C0003D14046294604F067F8B0F1FF3F06D0A169801B814238BF081C291801E0A069C4
:20516C00411904F055F8A4F820902560A4F81C8087F31188BDE8F883780100208B4208BF1F
:20518C00824204D90B1C021C002100207047002B08BF002A0BD10B1C021C00210020002B7C
:2051AC0008BF002A1CBFC943C04301F09ABFF0B51C4615460B46024600200021B4FA84F65A
:2051CC00202E04BFB5FA85F62036B3FA83F7202F04BFB2FA82F72037F61BB6F1200727BFB8
:2051EC0005FA07F400257F42B4403EBF25FA07F73C43B540A34208BFAA4201D3521BA34184
:20520C00404149416D0845EAC4756408761EF1D5F0BD7047B0B50446A768ADF1280D5FBBC5
:20522C000C2000F0A5F9071C1DD0684600212422082304F049F8002306976A466168ADF845
:20524C0010301848059303F0DFFF386070B90820ADF824000C25ADF8265009A802F086FD15
:20526C00384602F02DFF6FF0030018E0E06878602069B860A7600AE003F062FB054638683F
:20528C0003F082FA2069B860284603F0D1FC3868616804F015F8386804F00EF800200AB0E6
:2052AC00B0BDC046F98E00002DE9F843DFF87C900F4604464FF0FF31484603F0C1FFDFF88E
:2052CC0070801D4800210AE0FF2A07D00368934202D958F822600EB1002421E0491C1FB15C
:2052EC0017F82120FE2AEFD100202060012660600546A0600EE0FF290BD0636806FA01F0EB
:20530C0048F8214018430B4960601268204602F0FBFA6D1C27B107EB85021178FE29EAD165
:20532C00484603F089FF2046BDE8F88350270020B8250020007FC767002800209EB513469D
:20534C000C461F4A1D4912880988824206DB13A219460346204601F081FE9EBD194A1788C0
:20536C00814207DB03F020FA42681946204601F075FE9EBD002F08BF0BA2E9D00094002B26
:20538C0048BF47F6FF73104F002101933C6802910E496A46A04702989EBDC0467B6D6F645C
:2053AC00756C652325647D007B6D6F64756C652D726F70653A25787D00C046C018B20000AA
:2053CC001AB200008A05000000B20000B97F00002DE9984303F088FF1F4CDFF87880814610
:2053EC0004F1E000007850B94446A0680146022088470746102001F063FD2FB320E000F0E1
:20540C00D9FF002820460FD1144909683222B2FBF1F101B9012100F13004204603F050FFE0
:20542C00204603F049FF0FE044460022A16880F8E020022088470746102001F041FD1FB136
:20544C00A068014603208847484603F049FFBDE89883C0462CB10000A8120020CCB100003C
:20546C0070B51E4DAC68064603F0E6FA4FF47A71001B4843030C02F055FF2969401A48BF41
:20548C00404240F6B831F618B14210D306280EDAE9688C420BD8286848B1114A091B5143C7
:2054AC008A0C02EB1141884288BF011C08E00D49486840080ED208687D2100F0FF00414346
:2054CC00C82905D3B1F57A6F88BF4FF47A6103E0C82101E04FF4FA61084670BDA427002052
:2054EC0040420F00AC3F00502DE9F04180461F48076815460E46ADF1200D47B106A8009041
:20550C0042464FF6FF711B230120B84700E00020059028B300210091BDF81810FF270DF1C1
:20552C0012030246019129460297FAF781FD041C11D16889ADF81000700804D303F0A4F873
:20554C001B23074600E01D23404604A93A4601F093FC041C05D004A81B2103F025FA00E092
:20556C001524204608B0BDE8F081C046A8190020F8B5001D84B214F0030002D0241A241D73
:20558C00A4B203F0DDF91A49102C02464F690A61C8BF8F69388800231E46C10BCD0319D18A
:2055AC0026B984420ADD3B46012617E01988091889B28C42198011DC1F4608469FB1001B45
:2055CC0080B20428B4BF3C88385344F400443C803F1D08E080F40040002680B23F18388800
:2055EC000028DAD10027104603F022FB3846F8BD741500202DE9F041984616460F46044643
:20560C0003F04EFE0546384602F0F4FD42463146071C03D1284603F03FFE24E0F87F10F084
:20562C00070F19D112487B68984202D07B682366786004F1580080E80600284603F02CFEEB
:20564C0004F138004FF0FF3103F0FAFD04F1680797E80300BDE8F081284603F01DFEF87FC9
:20566C0010F0070FFBD102200021BDE8F081C046716A00001CB5042003F0F2F8022818D01E
:20568C00032816D016480068C0F38150032814BF41F288324FF47A721248144C01685434DE
:2056AC002046B2FBF1F103F00BFE204603F004FE1CBD03200C4C009000214FF040521C237D
:2056CC00204601F049FB012000214FF4007209230090204601F040FB022002F0BFFB1CBD37
:2056EC00B43F0050CCB1000000A00C40A81200202DE9FF410E4605461A4C7188E08A814297
:20570C000CDCB188814209DBF088218B884205D13089618B884208BF18271FD0052001F077
:20572C00C1FD77888046F188B388ADF80270A08AADF806100C4AADF800003789ADF8043096
:20574C0011216846ADF8087002F063FA071C05D1A57304F1F000414601F046FF3846009030
:20576C00BDE8FF81D40B0020B59000002DE9F843884603F0B9FD1B4D6C78814603F05CF991
:20578C00E60006EB4416761906F1B8073860A888A6F8BC00A888401CA880B8F80E00A6F855
:2057AC00BE0008F110004EC808374EC70FC887E80F00AE7800271EB92878A04208BF0127C2
:2057CC00641CE4B2202C1CBF6C70002002D100206870044607B12C70A870484603F080FD05
:2057EC00BDE8F8830802002000B5401EADF1240D08D0401F31D140F215306946FEF7F8FA2B
:20580C00684628E04FF4417006A9FEF7F1FA9DF819308DF801309DF81A208DF80220002118
:20582C008DF804109DF818008DF803109DF81D308DF800009DF81C208DF807309DF81B30AA
:20584C008DF8062069468DF80530054B0A6849681A6006A8596001F0B5F809B000BDC046BA
:20586C004F0F0020002213460A46194671B510F0030F0BD0002A82BF00F8011BB2F101023C
:20588C0010F0030FF6D1002A08BF71BD11F0FF0141EA0121042A18D341EA0141082A0FD31C
:2058AC000E46102A08D30C460D46B2F10F0312F00F0272C0103BFCD812F0080F18BF42C0C3
:2058CC0012F0040F18BF40F8041B12F0020F18BF20F8021B12F0010F18BF017071BD70471B
:2058EC002DE9F047071C0E462FD076B31848017800244FF6FF7A804625E0A000C519385A1A
:20590C0082451CD0A878D0B112480D21C268964204D0491E00F11000F8D110E08146A878C1
:20592C00410805D3288801214A46FFF7DDFDA878800804D3288802214A46FFF7D5FD98F8CE
:20594C000010641CE4B2A142D7DCBDE8F087C046D40B0020DC1300201B4B8C4610B501460B
:20596C0000241046F9B1491E14D0491E0AD0491E26D1BCF1040F19D1006803F10C01086092
:20598C0018691AE0BCF1040F10D10068191D0860986812E0BCF1040F08D1006803F11401DD
:2059AC000860986909E0BCF1040F01D0182408E0006803F11C010860186AFFF791FF00E00B
:2059CC000224204610BDC046B813002038B5054601201A4C68712879B0B902F0B1FF217894
:2059EC00002904BF6FF00704051C15D0491EC9B2217039B903F01CF9606802F0EFFA00200F
:205A0C00687118E0054613E002F09AFF05462078FF2805D16FF00604284603F009F90BE049
:205A2C00401CC0B20128207002D1606802F0EDFA284603F0FDF80024204638BDC41900208D
:205A4C0070B50646B079F4680628A4F10C042CDA3079062829DA02F073FF154DB27991000F
:205A6C000C3501EBC20149194968E1B103F0E0F830792071B0796071307AA071B179880019
:205A8C0000EBC1004019F1684068083002F044FBB179880000EBC10040194068406803F091
:205AAC00CBFB002070BD03F0C3F86FF0020070BDB415002038B519491A4C00204822C1F8AA
:205ACC00F30F94F8E200C1F8FF2F20B3012817D0022807D003281ED151F8310C00F024F8D3
:205AEC000B2016E051F8315C2846FDF761FA40F2FF50A84202D8801CA842F1D2082008E048
:205B0C0051F8310C00F0CAFB054800780028E7D0052084F8E400FDF7B9FE38BD39400C40B0
:205B2C003AB10000A812002038B51A4CA0F5C060D4F8B810C4F8D4000029B8BF4942002815
:205B4C00B8BF4042814220DAB4F8BC00124D30214FF47F4208230090284601F0FDF8B4F8AC
:205B6C00C00004214FF4F80212230090284601F0F3F8B4F8D00020214FF440620A23009089
:205B8C00284601F0E9F8012000E0002084F8D80038BDC046A812002000A00C4038B505464B
:205BAC00880F26D301F014FC124803F099F912480078012803D005F1380003F03DFB0F48EB
:205BCC0000240460022002F049F91120FEF72CFD287C10B90E20FEF727FD09480A49094AE1
:205BEC0004700878147020B108480C70042103F007F838BD5D450000491A002000000460EF
:205C0C00292800202E2800202C280020682600202DE9F8438146EFF31188202080F3118890
:205C2C00174D154C134F012605F11C000660A4F114000660F86A016A14208847D9F81000D2
:205C4C00810C14BF000C04202060386802682321002090470948066054F8180C20F4C020C8
:205C6C0040F4803044F8180C2E6088F31188BDE8F883C0468401001018200940800224430D
:205C8C00000024432DE9F041184E0446306890460D4680472068B0F1FF3F22D0B8F1010F00
:205CAC0007D16069400904D3A06810B12169081A2D1A204600F070FF6069226820F42060AF
:205CCC00002A60610DD40A2A0BDA0949D00047583FB10A584018D16940680B46424629463E
:205CEC00984770688047BDE8F081C046BC190020AC1400202DE9F8430024002B16460F46D8
:205D0C008046254606D5002FC3F1000302D57F42761E2D2599463846494601F063FA0CA021
:205D2C00405CB7FBF9F7002F04F1010408F8010DF1D1A64205DD3021301B401E08F8011D3E
:205D4C00FBD10DB108F8015D4046BDE8F883C0463031323334353637383961626364656641
:205D6C000000FEE7B0B5ADF1400D03F09DFA044600213C220823684603F042FA1148416885
:205D8C0006918168006804900F480068002205900E480891694603F02FFA071C0DD002F059
:205DAC00CFFD0546384600F085FE30B1284602F03FFF204603F06CFA01E003F09BF910B069
:205DCC00B0BDC04668AD000078150020AD8D000030B5401E4FF00004ADF12C0D0AD0401EB3
:205DEC0004D0401E20D1FDF751FD1DE000F0C6FB044619E001A821462422082303F064FA6F
:205E0C0006940D4DADF8144009490794012201AB05F1780003F04CFA064A23462C2105F12A
:205E2C009C00009303F024FA20460BB030BDC04649620000C15A0000A81200202DE9F0411B
:205E4C00164D8046286817460E468047144C4046002220700012A6701346A771214660709D
:205E6C003012E07030142071301660713812E071F42001F0D5FB0021204601F0ADFD686836
:205E8C00A778E67825786478804705EB074000EB066000EB0420BDE8F081C046BC19002091
:205EAC00F8270020164880B507683FB315498B6803EA5300C00E21D2134A106880081DD205
:205ECC00486880081AD21068096810F0050F4FEA114101F0F00101F5E0710AD1B9420DD22C
:205EEC00190F38BF40F00100D90E38BF40F0040003E0B94202D920F00500106080BDC046B3
:205F0C0028500940AC3F00500000094010B503F0EBF91149097829B110490C6803F0E0F946
:205F2C00204610BD03F0DCF902F0C4FE0FA20CCA02F01EFE0A4A126800231B184FEA0204AE
:205F4C0008A044EB010490E80600C91842EB04021046001C10BDC0462B2800200430044097
:205F6C00DC270020000000127A00000000093D00000000002DE9904190460F4603F0B4F96E
:205F8C000246154803788324391C40460BD0491E02D0491E13D010E00C490978012906D02F
:205FAC000B49098807E00B490B1D1F680FB9802406E04968898B018002E0032400E0037012
:205FCC00104603F08DF92046BDE890812828002030270020B82700202B280020F0B50F4677
:205FEC001749144605461122ADF1140D6846FFF72AF800210F222046FFF738FC0F263A2067
:20600C0017E00F2E03DA761E04F8010BF6B2297809111DF8011004F8011B15F8011B01F00C
:20602C000F011DF801107F1EB61EFFB2F6B204F8011B1FB1042EE4DA06B1207005B0F0BDD3
:20604C00E8B00000F8B5844640F6FF741CF8013B002210E0481B401E10F8015B7F1E01F85F
:20606C00015BF9D103E01CF8010B01F8010B521C5B08082AEADA5808F5D21CF8010B1CF8C4
:20608C00015B05F00F07FF1CC5F30315122F45EA001508D11CF8016B300A24BF1CF8010B87
:2060AC0060F3DF16BF19AC42D4D1F8BD2DE9FF4105462B683A21184602F0DBFDDFF850800E
:2060CC00061C20D0F41A082CC8BF082468461946224601F037FD002004F80D009DF8000055
:2060EC0088B14046502400F178073846694602F063FD20B93FB1761C38462E6005E0283CC2
:20610C002837282CF1D2404650300090BDE8FF81AC14002070B5164D064628680C46ADF10E
:20612C00680D80476846314602F0FFFD304602F0DFFD431C21460DEB030002F0F6FD2046B4
:20614C0002F0D6FD0B4C1B186A462146F7205B1C01F066FA0021204601F03EFC686865788F
:20616C002478804704EB052420B21AB070BDC046BC190020F8270020B0B5074603F0B4F844
:20618C00114905460878D8B1401EC0B20870B8B90E48082102F034FD97B10D4C2068703021
:2061AC0002F0F2FA0C4920680968C068094C3F1A2046B7FBF1F103F083F8204603F07CF89C
:2061CC00284603F08DF8B0BD312800206826002018280020D0260020CCB10000D0B5044677
:2061EC0003F036F800F066FC071C08BF6FF002041FD002F0A5FB0146A2880F480023243011
:20620C0030F80C6F5EB902804760A26882602373786820610024084602F00AFD09E0964280
:20622C0008BF6FF00204F6D05B1C062BE8D302F061FF2046D0BDC046901500201648144A31
:20624C00144908B5E4300078801E0A2807D8DFE800F01814100614100614100609C002F0D5
:20626C00FBFF11E010688008FCD250688008FCD20AE008688008FCD306E008688008FCD2EE
:20628C0002E010688008FCD3FDF700FB08BDC04634600C4038600C40A8120020134910B5C8
:2062AC000A684BF2F5214843040AC2F38140012806D102F037F801F06DF8604304EB905411
:2062CC000C4901F1E500007830B90948006820F07F402418640802E0002081F8E500064847
:2062EC000460210C41600123836010BDB43F005010200940A81200203C600C402DE9F041C7
:20630C00134E07463068144688468047114D211269704046A8702C70010A3846E97002F0C4
:20632C00E7FC431C3A462946F02001F079F90021284601F051FB70686E782D78804705EBC7
:20634C00062528B2002848BF041C2046BDE8F081BC190020F8270020B0B5044602F026FE68
:20636C0030F0010008BF6FF004041ED002F070FF054602F0E5FA01460D480622403030F8FB
:20638C000C7F6FB1A388BB4208D1406800680022854208BF0122A260002403E0521EEED12A
:2063AC004FF0FF34084602F043FC2046B0BDC0467415002008B5012002F052FA01281DD02C
:2063CC000F4834210122002300F0ECFE002808BF002014D00B48006801F0F4FF02F02CFB3A
:2063EC000A4A93681168D060C01A074BA1EB91014343180C884228BF011C1160012008BD80
:20640C0000A00C408000001040420F00A427002098B5154B1B1D18680004070C21D001F01A
:20642C0081FF104991F90720824205DD10F1800FB8BF6FF07F00C8718C88BC4210D80A6896
:20644C00D3F8D40F801A801C1F2888BF1F203F1B4008C7404FF6FF70E719B84238BF071C0E
:20646C008F8098BDF0270020301009401549096821280ADC212819D00B380FD00E380FD075
:20648C00001F0FD0C01E0FD01AE0253810D0001F10D0401E10D0401E10D011E0486870472B
:2064AC0088687047C8687047086970474869704788697047C8697047086A7047486A704790
:2064CC0000207047F0010020F8B50646B08815460F46FEF733FF0446002D02D4281B0A28FE
:2064EC0006DB3368291B38460BA200F0B7FD2418B08978B1002D06D4B06802F0F9FB291B1A
:20650C00401D884206DCB368291B384603A200F0A5FD24182046F8BD257000C028272573BF
:20652C0027290000F8B5134D0446286817460E46804738462146B0F5807F88BF4FF480709D
:20654C000D4C2170030AE3700022A0700F12677013462146F22001F063F83146204601F0CF
:20656C003BFA686865782478804704EB052420B2F8BDC046BC190020F827002038B5134DA4
:20658C0095F8E100002410B91148007860B102F0ABFE95F8E310002906BF012185F8E31017
:2065AC00012402F09DFE0CB1002038BD022001F06DFC0E20FEF70CF901F0C8FF01280EBFF9
:2065CC000120002085F8E20038BDC046A81200203AB10000084610B500F0005100F0040007
:2065EC00084317D0012002F03BF901280CD00B48094C016832222046B2FBF1F102F060FE67
:20660C00204602F059FE10BD054802F069FC05490548086010BDC046D0260020CCB10000E5
:20662C00111B000000100440CC2700202DE9F84F0AAFBC8882461D46914604F1120080B226
:20664C0002F032F8DFF83880D8F80CB0061C14D086F808A0A6F809907573396806F10E0006
:20666C002246FEF7F0FCA6F80B405846314602F0BFFD4046806802F0DFFDBDE8F88FC046AB
:20668C00C0070020F8B5124D0446286816460F46804733463A462046B3F5807F88BF4FF419
:2066AC0080730C4C2070071267701E0AA3702146E670F32000F0B4FF0021204601F08CF958
:2066CC00686865782478804704EB052420B2F8BDBC190020F8270020D0B5044602F0B8FD55
:2066EC0001F074FB061C08BF6FF004001DD002F027F9B168002908BF002709D051F80C2C59
:20670C000023B2600F4641F80C3CFF2601F8026C02F08EFAA7603FB117F8080C207117F8A2
:20672C00070CA0710020D0BD0220D0BD012838B51ED1012002F094F801281BD002F094F996
:20674C000D4D0E480122322305F1E00100680A70B3FBF0F404B914463035284602F014F8D2
